{"address":"0xC97d6E249120D0a4F569e4Ba5D169dBd1627a033","bytecode":"0x60806040523480156200001157600080fd5b50604051620017f5380380620017f58339810160408190526200003491620001b8565b8083836000620000458382620002d4565b506001620000548282620002d4565b5050506001600160a01b0381166200008657604051631e4fbdf760e01b81526000600482015260240160405180910390fd5b6200009181620000a1565b5050600060085550620003a09050565b600780546001600160a01b038381166001600160a01b0319831681179093556040519116919082907f8be0079c531659141344cd1fd0a4f28419497f9722a3daafe3b4186f6b6457e090600090a35050565b634e487b7160e01b600052604160045260246000fd5b600082601f8301126200011b57600080fd5b81516001600160401b0380821115620001385762000138620000f3565b604051601f8301601f19908116603f01168101908282118183101715620001635762000163620000f3565b816040528381526020925086838588010111156200018057600080fd5b600091505b83821015620001a4578582018301518183018401529082019062000185565b600093810190920192909252949350505050565b600080600060608486031215620001ce57600080fd5b83516001600160401b0380821115620001e657600080fd5b620001f48783880162000109565b945060208601519150808211156200020b57600080fd5b506200021a8682870162000109565b604086015190935090506001600160a01b03811681146200023a57600080fd5b809150509250925092565b600181811c908216806200025a57607f821691505b6020821081036200027b57634e487b7160e01b600052602260045260246000fd5b50919050565b601f821115620002cf57600081815260208120601f850160051c81016020861015620002aa5750805b601f850160051c820191505b81811015620002cb57828155600101620002b6565b5050505b505050565b81516001600160401b03811115620002f057620002f0620000f3565b620003088162000301845462000245565b8462000281565b602080601f831160018114620003405760008415620003275750858301515b600019600386901b1c1916600185901b178555620002cb565b600085815260208120601f198616915b82811015620003715788860151825594840194600190910190840162000350565b5085821015620003905787850151600019600388901b60f8161c191681555b5050505050600190811b01905550565b61144580620003b06000396000f3fe608060405234801561001057600080fd5b50600436106101165760003560e01c80638da5cb5b116100a2578063c87b56dd11610071578063c87b56dd14610239578063d082e3811461024c578063e985e9c514610255578063eacabe1414610268578063f2fde38b1461027b57600080fd5b80638da5cb5b146101fa57806395d89b411461020b578063a22cb46514610213578063b88d4fde1461022657600080fd5b806323b872dd116100e957806323b872dd1461019857806342842e0e146101ab5780636352211e146101be57806370a08231146101d1578063715018a6146101f257600080fd5b806301ffc9a71461011b57806306fdde0314610143578063081812fc14610158578063095ea7b314610183575b600080fd5b61012e610129366004610f0e565b61028e565b60405190151581526020015b60405180910390f35b61014b6102b9565b60405161013a9190610f7b565b61016b610166366004610f8e565b61034b565b6040516001600160a01b03909116815260200161013a565b610196610191366004610fc3565b610374565b005b6101966101a6366004610fed565b610383565b6101966101b9366004610fed565b610413565b61016b6101cc366004610f8e565b610433565b6101e46101df366004611029565b61043e565b60405190815260200161013a565b610196610486565b6007546001600160a01b031661016b565b61014b61049a565b610196610221366004611044565b6104a9565b61019661023436600461110c565b6104b4565b61014b610247366004610f8e565b6104cb565b6101e460085481565b61012e610263366004611188565b6105dc565b6101e46102763660046111bb565b61060a565b610196610289366004611029565b610682565b60006001600160e01b03198216632483248360e11b14806102b357506102b3826106c0565b92915050565b6060600080546102c89061121d565b80601f01602080910402602001604051908101604052809291908181526020018280546102f49061121d565b80156103415780601f1061031657610100808354040283529160200191610341565b820191906000526020600020905b81548152906001019060200180831161032457829003601f168201915b5050505050905090565b600061035682610710565b506000828152600460205260409020546001600160a01b03166102b3565b61037f828233610749565b5050565b6001600160a01b0382166103b257604051633250574960e11b8152600060048201526024015b60405180910390fd5b60006103bf838333610756565b9050836001600160a01b0316816001600160a01b03161461040d576040516364283d7b60e01b81526001600160a01b03808616600483015260248201849052821660448201526064016103a9565b50505050565b61042e838383604051806020016040528060008152506104b4565b505050565b60006102b382610710565b60006001600160a01b03821661046a576040516322718ad960e21b8152600060048201526024016103a9565b506001600160a01b031660009081526003602052604090205490565b61048e61084f565b610498600061087c565b565b6060600180546102c89061121d565b61037f3383836108ce565b6104bf848484610383565b61040d8484848461096d565b60606104d682610710565b50600082815260066020526040812080546104f09061121d565b80601f016020809104026020016040519081016040528092919081815260200182805461051c9061121d565b80156105695780601f1061053e57610100808354040283529160200191610569565b820191906000526020600020905b81548152906001019060200180831161054c57829003601f168201915b50505050509050600061058760408051602081019091526000815290565b90508051600003610599575092915050565b8151156105cb5780826040516020016105b3929190611257565b60405160208183030381529060405292505050919050565b6105d484610a96565b949350505050565b6001600160a01b03918216600090815260056020908152604080832093909416825291909152205460ff1690565b600061061461084f565b6008546106218482610b0b565b61062b8184610b70565b60016008600082825461063e9190611286565b909155505060405181906001600160a01b038616906000907fddf252ad1be2c89b69c2b068fc378daa952ba7f163c4a11628f55a4df523b3ef908290a49392505050565b61068a61084f565b6001600160a01b0381166106b457604051631e4fbdf760e01b8152600060048201526024016103a9565b6106bd8161087c565b50565b60006001600160e01b031982166380ac58cd60e01b14806106f157506001600160e01b03198216635b5e139f60e01b145b806102b357506301ffc9a760e01b6001600160e01b03198316146102b3565b6000818152600260205260408120546001600160a01b0316806102b357604051637e27328960e01b8152600481018490526024016103a9565b61042e8383836001610bc0565b6000828152600260205260408120546001600160a01b039081169083161561078357610783818486610cc6565b6001600160a01b038116156107c1576107a0600085600080610bc0565b6001600160a01b038116600090815260036020526040902080546000190190555b6001600160a01b038516156107f0576001600160a01b0385166000908152600360205260409020805460010190555b60008481526002602052604080822080546001600160a01b0319166001600160a01b0389811691821790925591518793918516917fddf252ad1be2c89b69c2b068fc378daa952ba7f163c4a11628f55a4df523b3ef91a4949350505050565b6007546001600160a01b031633146104985760405163118cdaa760e01b81523360048201526024016103a9565b600780546001600160a01b038381166001600160a01b0319831681179093556040519116919082907f8be0079c531659141344cd1fd0a4f28419497f9722a3daafe3b4186f6b6457e090600090a35050565b6001600160a01b03821661090057604051630b61174360e31b81526001600160a01b03831660048201526024016103a9565b6001600160a01b03838116600081815260056020908152604080832094871680845294825291829020805460ff191686151590811790915591519182527f17307eab39ab6107e8899845ad3d59bd9653f200f220920489ca2b5937696c31910160405180910390a3505050565b6001600160a01b0383163b1561040d57604051630a85bd0160e11b81526001600160a01b0384169063150b7a02906109af9033908890879087906004016112a7565b6020604051808303816000875af19250505080156109ea575060408051601f3d908101601f191682019092526109e7918101906112e4565b60015b610a53573d808015610a18576040519150601f19603f3d011682016040523d82523d6000602084013e610a1d565b606091505b508051600003610a4b57604051633250574960e11b81526001600160a01b03851660048201526024016103a9565b805181602001fd5b6001600160e01b03198116630a85bd0160e11b14610a8f57604051633250574960e11b81526001600160a01b03851660048201526024016103a9565b5050505050565b6060610aa182610710565b506000610ab960408051602081019091526000815290565b90506000815111610ad95760405180602001604052806000815250610b04565b80610ae384610d2a565b604051602001610af4929190611257565b6040516020818303038152906040525b9392505050565b6001600160a01b038216610b3557604051633250574960e11b8152600060048201526024016103a9565b6000610b4383836000610756565b90506001600160a01b0381161561042e576040516339e3563760e11b8152600060048201526024016103a9565b6000828152600660205260409020610b88828261134f565b506040518281527ff8e1a15aba9398e019f0b49df1a4fde98ee17ae345cb5f6b5e2c27f5033e8ce79060200160405180910390a15050565b8080610bd457506001600160a01b03821615155b15610c96576000610be484610710565b90506001600160a01b03831615801590610c105750826001600160a01b0316816001600160a01b031614155b8015610c235750610c2181846105dc565b155b15610c4c5760405163a9fbf51f60e01b81526001600160a01b03841660048201526024016103a9565b8115610c945783856001600160a01b0316826001600160a01b03167f8c5be1e5ebec7d5bd14f71427d1e84f3dd0314c0f7b2291e5b200ac8c7c3b92560405160405180910390a45b505b5050600090815260046020526040902080546001600160a01b0319166001600160a01b0392909216919091179055565b610cd1838383610dbd565b61042e576001600160a01b038316610cff57604051637e27328960e01b8152600481018290526024016103a9565b60405163177e802f60e01b81526001600160a01b0383166004820152602481018290526044016103a9565b60606000610d3783610e20565b600101905060008167ffffffffffffffff811115610d5757610d57611080565b6040519080825280601f01601f191660200182016040528015610d81576020820181803683370190505b5090508181016020015b600019016f181899199a1a9b1b9c1cb0b131b232b360811b600a86061a8153600a8504945084610d8b57509392505050565b60006001600160a01b038316158015906105d45750826001600160a01b0316846001600160a01b03161480610df75750610df784846105dc565b806105d45750506000908152600460205260409020546001600160a01b03908116911614919050565b60008072184f03e93ff9f4daa797ed6e38ed64bf6a1f0160401b8310610e5f5772184f03e93ff9f4daa797ed6e38ed64bf6a1f0160401b830492506040015b6d04ee2d6d415b85acef81000000008310610e8b576d04ee2d6d415b85acef8100000000830492506020015b662386f26fc100008310610ea957662386f26fc10000830492506010015b6305f5e1008310610ec1576305f5e100830492506008015b6127108310610ed557612710830492506004015b60648310610ee7576064830492506002015b600a83106102b35760010192915050565b6001600160e01b0319811681146106bd57600080fd5b600060208284031215610f2057600080fd5b8135610b0481610ef8565b60005b83811015610f46578181015183820152602001610f2e565b50506000910152565b60008151808452610f67816020860160208601610f2b565b601f01601f19169290920160200192915050565b602081526000610b046020830184610f4f565b600060208284031215610fa057600080fd5b5035919050565b80356001600160a01b0381168114610fbe57600080fd5b919050565b60008060408385031215610fd657600080fd5b610fdf83610fa7565b946020939093013593505050565b60008060006060848603121561100257600080fd5b61100b84610fa7565b925061101960208501610fa7565b9150604084013590509250925092565b60006020828403121561103b57600080fd5b610b0482610fa7565b6000806040838503121561105757600080fd5b61106083610fa7565b91506020830135801515811461107557600080fd5b809150509250929050565b634e487b7160e01b600052604160045260246000fd5b600067ffffffffffffffff808411156110b1576110b1611080565b604051601f8501601f19908116603f011681019082821181831017156110d9576110d9611080565b816040528093508581528686860111156110f257600080fd5b858560208301376000602087830101525050509392505050565b6000806000806080858703121561112257600080fd5b61112b85610fa7565b935061113960208601610fa7565b925060408501359150606085013567ffffffffffffffff81111561115c57600080fd5b8501601f8101871361116d57600080fd5b61117c87823560208401611096565b91505092959194509250565b6000806040838503121561119b57600080fd5b6111a483610fa7565b91506111b260208401610fa7565b90509250929050565b600080604083850312156111ce57600080fd5b6111d783610fa7565b9150602083013567ffffffffffffffff8111156111f357600080fd5b8301601f8101851361120457600080fd5b61121385823560208401611096565b9150509250929050565b600181811c9082168061123157607f821691505b60208210810361125157634e487b7160e01b600052602260045260246000fd5b50919050565b60008351611269818460208801610f2b565b83519083019061127d818360208801610f2b565b01949350505050565b808201808211156102b357634e487b7160e01b600052601160045260246000fd5b6001600160a01b03858116825284166020820152604081018390526080606082018190526000906112da90830184610f4f565b9695505050505050565b6000602082840312156112f657600080fd5b8151610b0481610ef8565b601f82111561042e57600081815260208120601f850160051c810160208610156113285750805b601f850160051c820191505b8181101561134757828155600101611334565b505050505050565b815167ffffffffffffffff81111561136957611369611080565b61137d81611377845461121d565b84611301565b602080601f8311600181146113b2576000841561139a5750858301515b600019600386901b1c1916600185901b178555611347565b600085815260208120601f198616915b828110156113e1578886015182559484019460019091019084016113c2565b50858210156113ff5787850151600019600388901b60f8161c191681555b5050505050600190811b0190555056fea26469706673582212204f370a50adafb12f3a14be9d3d1a88c0ac55b0e170309c886b20cd636faa3f6264736f6c63430008140033","abi":[{"inputs":[{"internalType":"string","name":"name_","type":"string"},{"internalType":"string","name":"symbol_","type":"string"},{"internalType":"address","name":"initialOwner","type":"address"}],"stateMutability":"nonpayable","type":"constructor"},{"inputs":[{"internalType":"address","name":"sender","type":"address"},{"internalType":"uint256","name":"tokenId","type":"uint256"},{"internalType":"address","name":"owner","type":"address"}],"name":"ERC721IncorrectOwner","type":"error"},{"inputs":[{"internalType":"address","name":"operator","type":"address"},{"internalType":"uint256","name":"tokenId","type":"uint256"}],"name":"ERC721InsufficientApproval","type":"error"},{"inputs":[{"internalType":"address","name":"approver","type":"address"}],"name":"ERC721InvalidApprover","type":"error"},{"inputs":[{"internalType":"address","name":"operator","type":"address"}],"name":"ERC721InvalidOperator","type":"error"},{"inputs":[{"internalType":"address","name":"owner","type":"address"}],"name":"ERC721InvalidOwner","type":"error"},{"inputs":[{"internalType":"address","name":"receiver","type":"address"}],"name":"ERC721InvalidReceiver","type":"error"},{"inputs":[{"internalType":"address","name":"sender","type":"address"}],"name":"ERC721InvalidSender","type":"error"},{"inputs":[{"internalType":"uint256","name":"tokenId","type":"uint256"}],"name":"ERC721NonexistentToken","type":"error"},{"inputs":[{"internalType":"address","name":"owner","type":"address"}],"name":"OwnableInvalidOwner","type":"error"},{"inputs":[{"internalType":"address","name":"account","type":"address"}],"name":"OwnableUnauthorizedAccount","type":"error"},{"anonymous":false,"inputs":[{"indexed":true,"internalType":"address","name":"owner","type":"address"},{"indexed":true,"internalType":"address","name":"approved","type":"address"},{"indexed":true,"internalType":"uint256","name":"tokenId","type":"uint256"}],"name":"Approval","type":"event"},{"anonymous":false,"inputs":[{"indexed":true,"internalType":"address","name":"owner","type":"address"},{"indexed":true,"internalType":"address","name":"operator","type":"address"},{"indexed":false,"internalType":"bool","name":"approved","type":"bool"}],"name":"ApprovalForAll","type":"event"},{"anonymous":false,"inputs":[{"indexed":false,"internalType":"uint256","name":"_fromTokenId","type":"uint256"},{"indexed":false,"internalType":"uint256","name":"_toTokenId","type":"uint256"}],"name":"BatchMetadataUpdate","type":"event"},{"anonymous":false,"inputs":[{"indexed":false,"internalType":"uint256","name":"_tokenId","type":"uint256"}],"name":"MetadataUpdate","type":"event"},{"anonymous":false,"inputs":[{"indexed":true,"internalType":"address","name":"previousOwner","type":"address"},{"indexed":true,"internalType":"address","name":"newOwner","type":"address"}],"name":"OwnershipTransferred","type":"event"},{"anonymous":false,"inputs":[{"indexed":true,"internalType":"address","name":"from","type":"address"},{"indexed":true,"internalType":"address","name":"to","type":"address"},{"indexed":true,"internalType":"uint256","name":"tokenId","type":"uint256"}],"name":"Transfer","type":"event"},{"inputs":[{"internalType":"address","name":"to","type":"address"},{"internalType":"uint256","name":"tokenId","type":"uint256"}],"name":"approve","outputs":[],"stateMutability":"nonpayable","type":"function"},{"inputs":[{"internalType":"address","name":"owner","type":"address"}],"name":"balanceOf","outputs":[{"internalType":"uint256","name":"","type":"uint256"}],"stateMutability":"view","type":"function"},{"inputs":[{"internalType":"uint256","name":"tokenId","type":"uint256"}],"name":"getApproved","outputs":[{"internalType":"address","name":"","type":"address"}],"stateMutability":"view","type":"function"},{"inputs":[{"internalType":"address","name":"owner","type":"address"},{"internalType":"address","name":"operator","type":"address"}],"name":"isApprovedForAll","outputs":[{"internalType":"bool","name":"","type":"bool"}],"stateMutability":"view","type":"function"},{"inputs":[{"internalType":"address","name":"recipient","type":"address"},{"internalType":"string","name":"tokenURI","type":"string"}],"name":"mintNFT","outputs":[{"internalType":"uint256","name":"","type":"uint256"}],"stateMutability":"nonpayable","type":"function"},{"inputs":[],"name":"name","outputs":[{"internalType":"string","name":"","type":"string"}],"stateMutability":"view","type":"function"},{"inputs":[],"name":"owner","outputs":[{"internalType":"address","name":"","type":"address"}],"stateMutability":"view","type":"function"},{"inputs":[{"internalType":"uint256","name":"tokenId","type":"uint256"}],"name":"ownerOf","outputs":[{"internalType":"address","name":"","type":"address"}],"stateMutability":"view","type":"function"},{"inputs":[],"name":"renounceOwnership","outputs":[],"stateMutability":"nonpayable","type":"function"},{"inputs":[{"internalType":"address","name":"from","type":"address"},{"internalType":"address","name":"to","type":"address"},{"internalType":"uint256","name":"tokenId","type":"uint256"}],"name":"safeTransferFrom","outputs":[],"stateMutability":"nonpayable","type":"function"},{"inputs":[{"internalType":"address","name":"from","type":"address"},{"internalType":"address","name":"to","type":"address"},{"internalType":"uint256","name":"tokenId","type":"uint256"},{"internalType":"bytes","name":"data","type":"bytes"}],"name":"safeTransferFrom","outputs":[],"stateMutability":"nonpayable","type":"function"},{"inputs":[{"internalType":"address","name":"operator","type":"address"},{"internalType":"bool","name":"approved","type":"bool"}],"name":"setApprovalForAll","outputs":[],"stateMutability":"nonpayable","type":"function"},{"inputs":[{"internalType":"bytes4","name":"interfaceId","type":"bytes4"}],"name":"supportsInterface","outputs":[{"internalType":"bool","name":"","type":"bool"}],"stateMutability":"view","type":"function"},{"inputs":[],"name":"symbol","outputs":[{"internalType":"string","name":"","type":"string"}],"stateMutability":"view","type":"function"},{"inputs":[],"name":"tokenCounter","outputs":[{"internalType":"uint256","name":"","type":"uint256"}],"stateMutability":"view","type":"function"},{"inputs":[{"internalType":"uint256","name":"tokenId","type":"uint256"}],"name":"tokenURI","outputs":[{"internalType":"string","name":"","type":"string"}],"stateMutability":"view","type":"function"},{"inputs":[{"internalType":"address","name":"from","type":"address"},{"internalType":"address","name":"to","type":"address"},{"internalType":"uint256","name":"tokenId","type":"uint256"}],"name":"transferFrom","outputs":[],"stateMutability":"nonpayable","type":"function"},{"inputs":[{"internalType":"address","name":"newOwner","type":"address"}],"name":"transferOwnership","outputs":[],"stateMutability":"nonpayable","type":"function"}]}